:100000000C9462000C948A000C948A000C948A0070
:100010000C948A000C948A000C948A000C948A0038
:100020000C948A000C948A000C948A000C948A0028
:100030000C948A000C948A000C948A000C948A0018
:100040000C949B060C948A000C9469060C9443064D
:100050000C948A000C948A000C948A000C948A00F8
:100060000C948A000C948A000000000024002700F1
:100070002A0000000000250028002B0000000008D6
:10008000000201000003040700000000000000005F
:1000900000000000230026002900040404040404D6
:1000A0000404020202020202030303030303010227
:1000B00004081020408001020408102001020408F6
:1000C0001020E50611241FBECFEFD8E0DEBFCDBF64
:1000D00011E0A0E0B1E0ECEFF6E102C005900D9276
:1000E000A23BB107D9F722E0A2EBB1E001C01D921B
:1000F000A738B207E1F710E0C2E6D0E004C02197CC
:10010000FE010E94760BC136D107C9F70E944E0747
:100110000C947C0B0C940000CF92DF92EF92FF9234
:10012000CF93DF93B0917B02A0E08111AB2F809140
:100130007C0290E0880F991FAC0140575F4FC09040
:100140008102D0908202E0908302F090840230E03D
:1001500020E0FA01C591D491E881B90190E080E0F6
:10016000EB23EA130AC02F5F3F4F6C157D058E0508
:100170009F0578F36FEF7FEFCB01DF91CF91FF9079
:10018000EF90DF90CF900895AF92BF92CF92DF9221
:10019000EF92FF920F931F93CF93DF936C017B013C
:1001A0008B01040F151FEB015E01AE18BF08C017CD
:1001B000D10759F06991D601ED91FC910190F08140
:1001C000E02DC6010995892B79F7C501DF91CF9103
:1001D0001F910F91FF90EF90DF90CF90BF90AF9065
:1001E0000895FC01538D448D252F30E0842F90E03D
:1001F000821B930B541710F0CF9608950197089522
:10020000FC01918D828D981761F0A28DAE0FBF2FEA
:10021000B11D5D968C91928D9F5F9F73928F90E040
:1002200008958FEF9FEF0895FC01918D828D9817AF
:1002300031F0828DE80FF11D858D90E008958FEFEC
:100240009FEF0895FC01918D228D892F90E0805CB5
:100250009F4F821B91098F73992708958FEB91E02F
:100260000E94220121E0892B09F420E0822F0895C9
:1002700080E090E0892B29F00E942E0181110C94DE
:1002800000000895FC01A48DA80FB92FB11DA35A39
:10029000BF4F2C91848D90E001968F739927848FA6
:1002A000A689B7892C93A089B1898C9183708064C9
:1002B0008C93938D848D981306C00288F389E02D6A
:1002C00080818F7D80830895EF92FF920F931F931B
:1002D000CF93DF93EC0181E0888F9B8D8C8D9813F9
:1002E0001AC0E889F989808185FF15C09FB7F89405
:1002F000EE89FF896083E889F98980818370806451
:1003000080839FBF81E090E0DF91CF911F910F919B
:10031000FF90EF900895F62E0B8D10E00F5F1F4FAA
:100320000F731127E02E8C8D8E110CC00FB607FCB9
:10033000FACFE889F989808185FFF5CFCE010E9447
:100340004201F1CFEB8DEC0FFD2FF11DE35AFF4F72
:10035000F0829FB7F8940B8FEA89FB8980818062D5
:10036000CFCFCF93DF93EC01888D8823B9F0AA8992
:10037000BB89E889F9898C9185FD03C0808186FD60
:100380000DC00FB607FCF7CF8C9185FFF2CF8081AF
:1003900085FFEDCFCE010E944201E9CFDF91CF91E1
:1003A000089590E0FC01E458FF4F2491FC01E255D0
:1003B000FF4F3491FC01E656FF4FE491EE23C9F064
:1003C000222339F0233001F1A8F4213019F1223031
:1003D00029F1F0E0EE0FFF1FEE58FF4FA591B49109
:1003E0008FB7F894EC91611126C030953E233C9371
:1003F0008FBF08952730A9F02830C9F0243049F77D
:10040000809180008F7D03C0809180008F778093E2
:100410008000DFCF84B58F7784BDDBCF84B58F7D3F
:10042000FBCF8091B0008F778093B000D2CF8091C6
:10043000B0008F7DF9CF3E2BDACFCF93DF9390E0E2
:10044000FC01E255FF4F249186569F4FFC01849199
:100450008823D1F090E0880F991FFC01E859FF4FE5
:10046000A591B491FC01EE58FF4FC591D491623033
:1004700071F49FB7F8943C91822F809583238C93DD
:10048000E8812E2B28839FBFDF91CF9108958FB7EE
:10049000F894EC912E2B2C938FBFF6CF3FB7F894A6
:1004A0008091B3019091B401A091B501B091B601D2
:1004B00026B5A89B05C02F3F19F00196A11DB11DBF
:1004C0003FBFBA2FA92F982F8827BC01CD01620FFB
:1004D000711D811D911D42E0660F771F881F991FB6
:1004E0004A95D1F708958F929F92AF92BF92CF9283
:1004F000DF92EF92FF924B015C010E944E026B0172
:100500007C010E944E026C197D098E099F09683E8C
:10051000734081059105A8F321E0821A9108A10892
:10052000B10888EEC80E83E0D81EE11CF11C8114CE
:100530009104A104B10429F7FF90EF90DF90CF90D0
:10054000BF90AF909F908F900895CF92DF92EF92DF
:10055000FF920F931F93CF93DF93CDB7DEB7C054B5
:10056000D1400FB6F894DEBF0FBECDBF2FB7F894C1
:100570008091BB019091BC01A091BD01B091BE01E1
:100580002FBF40917D0250917E0260917F02709159
:1005900080028C019D01041B150B260B370BB90142
:1005A000A801403D57406105710590F48091850296
:1005B000C05CDE4F0FB6F894DEBF0FBECDBFDF913B
:1005C000CF911F910F91FF90EF90DF90CF90089502
:1005D00080937D0290937E02A0937F02B09380026D
:1005E00010927802109277021092760210927502A1
:1005F0001092740262E0809179020E941D0261E013
:1006000070E080E090E00E94730261E080917902E6
:100610000E941D0260E0809179020E94D1018091C8
:100620007A028551823020F58BE291E10197F1F752
:1006300062E0809179020E941D028091860290E022
:100640008230910538F0880F991F880F991F059700
:100650000197F1F7F89480E00E948C006F3F7F4F84
:100660008F4F9F4F61F410928502789480E0A0CF65
:1006700064E170E080E090E00E947302D9CF81E0F5
:100680000E948C006F3F7F4F8F4F9F4F61F38E0111
:100690000F5F1F4F6E018FEBC81A8EEFD80A7801DB
:1006A00080E00E948C00F7016083718382839383D2
:1006B00081E00E948C00F7016483758386839783B1
:1006C000F8E0EF0EF11CEC14FD0451F7789430E0E3
:1006D00020E0F801C080D180E280F3804481558120
:1006E00066817781FFEFCF16DF06EF06FF0631F058
:1006F0004F3F8FEF58076807780719F4109285026B
:10070000B5CFF90183E0F595E7958A95E1F7EC58C7
:10071000FD4F8081880FC416D506E606F70610F156
:1007200080832F5F3F4F085F1F4F2832310589F6C6
:10073000409178022091740280917502280F33272E
:10074000331F80917602280F311D80917702820F2E
:10075000932F911D99274817190681F681E0809300
:10076000850226CF8160DCCF089590E080E0089577
:10077000FC0101900020E9F73197AF01481B590BAC
:10078000BC018CE592E00C94C4008F929F92AF92D2
:10079000BF920F931F93CF93DF93CDB7DEB7A1978F
:1007A0000FB6F894DEBF0FBECDBF19A2423008F4D9
:1007B0004AE08E010F5D1F4F842E912CB12CA12C8D
:1007C000A50194010E94540BE62FB901CA01EA3039
:1007D000F4F4E05DD801EE938D01232B242B252B1F
:1007E00079F790E080E0109719F0CD010E94B803EE
:1007F000A1960FB6F894DEBF0FBECDBFDF91CF91AB
:100800001F910F91BF90AF909F908F900895E95CDA
:10081000E1CF0C94B803CF93DF93EC0160E08E81BD
:100820000E94D10161E08E810E94D10160E08E8141
:100830000E94D1018BE891E00197F1F7DF91CF9110
:100840000895CF92DF92EF92FF920F931F93CF9371
:10085000DF936C017C0187E0E80EF11CD0E0C0E082
:10086000062F10E0B8010C2E02C0759567950A940A
:10087000E2F76170F70181917F010E94D101219619
:10088000C430D10579F7C601DF91CF911F910F9147
:10089000FF90EF90DF90CF900C940B04CF92DF92FB
:1008A000EF92FF920F931F93CF93DF93EC01F62EFD
:1008B000642F8C810E94D1018D818F3F19F060E0FF
:1008C0000E94D1010F2D10E08F8584FF25C06E019D
:1008D00087E0C80ED11CF12CE12CB8010E2C02C00F
:1008E000759567950A94E2F76170F60181916F0141
:1008F0000E94D101FFEFEF1AFF0A88E0E816F10429
:1009000061F7CE01DF91CF911F910F91FF90EF9092
:10091000DF90CF900C940B04B80184E07595679537
:100920008A95E1F7CE010E9421046F2DCE01DF915F
:10093000CF911F910F91FF90EF90DF90CF900C948B
:10094000210440E0682F8CE592E00C944E0481E095
:100950000E94A1048BE39FE10197F1F70895CF93E3
:10096000DF93823029F490916B02986090936B0230
:1009700080936F021092700280E48093710280E194
:100980008093720280E58093730261E0809160023F
:100990000E941D02809161028F3F19F061E00E9468
:1009A0001D0261E0809162020E941D02CCE5D2E04E
:1009B0009E012C55324080916B0284FD0BC084E077
:1009C00090E021962817390744F461E08E810E9457
:1009D0001D02EECF88E090E0F4CF8BE39DE001971D
:1009E000F1F760E0809160020E94D10160E08091A7
:1009F00062020E94D101809161028F3F19F060E094
:100A00000E94D10180916B0284FD34C063E08CE5CB
:100A100092E00E942104CBE4D6E4CE010197F1F7E5
:100A200063E08CE592E00E9421042197F1F763E0F6
:100A30008CE592E00E94210483E592E00197F1F7B2
:100A400062E08CE592E00E94210480916B0280625A
:100A50000E94A10484E080936C028CE00E94A104B7
:100A60000E94A70482E080936D0286E0DF91CF911F
:100A70000C94A10480620E94A1048BE496E4019787
:100A8000F1F780916B0280620E94A10483E592E0FD
:100A90000197F1F780916B0280620E94A104D5CF8B
:100AA00090916F02691710F06FEF690FE62FF0E079
:100AB000E45AFD4F9489890F80680C94A10441E0A9
:100AC0000E944E0481E090E008954F925F926F92F1
:100AD0007F928F929F92AF92BF92CF92DF92EF92CE
:100AE000FF920F931F93CF936B017C01742EAC0187
:100AF0009B010E944F0B882399F08EE191E0CF91EA
:100B00001F910F91FF90EF90DF90CF90BF90AF902B
:100B10009F908F907F906F905F904F900C94B80350
:100B200046015701E894B7F82FEF3FEF4FE75FE733
:100B3000C501B4010E944F0B81110DC02FEF3FEF93
:100B40004FE75FE7C501B4010E94850918161CF440
:100B500082E291E0D4CF2FEF3FEF4FE75FE4C70190
:100B6000B6010E94DD0A18161CF486E291E0C7CF98
:100B70002FEF3FEF4FE75FECC701B6010E948509F9
:100B800087FDF3CF20E030E0A901C701B6010E9444
:100B9000850910E000E087FF0CC041E06DE28CE5C4
:100BA00092E00E944E04F7FAF094F7F8F09401E016
:100BB00010E0C0E060E070E080E09FE37C1641F070
:100BC00020E030E040E251E40E948A09CF5FF6CF96
:100BD000A70196010E9419094B015C010E94FC09C2
:100BE0002B013C014AE00E94C503080F191FCC23CA
:100BF000C9F1C301B2010E942B0A9B01AC01C501DE
:100C0000B4010E9418094B015C0141E06EE28CE5E1
:100C100092E00E944E040F5F1F4FC15018F120E078
:100C200030E040E251E4C501B4010E94E20A2B0128
:100C30003C010E94FC094B01B12CA12C4AE0C501EA
:100C4000B4010E94C503080F191FC501B4010E9419
:100C50002B0A9B01AC01C301B2010E9418094B0190
:100C60005C01DBCFC801CF911F910F91FF90EF90F6
:100C7000DF90CF90BF90AF909F908F907F906F90BC
:100C80005F904F9008951F920F920FB60F9211240C
:100C90002F933F934F935F936F937F938F939F9384
:100CA000AF93BF93EF93FF938FEB91E00E944201CC
:100CB000FF91EF91BF91AF919F918F917F916F9134
:100CC0005F914F913F912F910F900FBE0F901F900A
:100CD00018951F920F920FB60F9211242F938F9396
:100CE0009F93EF93FF93E091CF01F091D00180812A
:100CF000E091D501F091D60182FD1BC090818091D9
:100D0000D8018F5F8F732091D901821741F0E09154
:100D1000D801F0E0E154FE4F958F8093D801FF9108
:100D2000EF919F918F912F910F900FBE0F901F9079
:100D300018958081F4CF1F920F920FB60F92112455
:100D40002F933F938F939F93AF93BF938091BB015A
:100D50009091BC01A091BD01B091BE013091B20152
:100D600023E0230F2D3758F50196A11DB11D2093C7
:100D7000B2018093BB019093BC01A093BD01B093DD
:100D8000BE018091B3019091B401A091B501B091E1
:100D9000B6010196A11DB11D8093B3019093B401DA
:100DA000A093B501B093B601BF91AF919F918F9180
:100DB0003F912F910F900FBE0F901F90189526E82E
:100DC000230F0296A11DB11DD2CFEFEBF1E01382EC
:100DD000128288EE93E0A0E0B0E084839583A6833E
:100DE000B78384E091E09183808385EC90E09587E0
:100DF000848784EC90E09787868780EC90E0918BE5
:100E0000808B81EC90E0938B828B82EC90E0958BD1
:100E1000848B86EC90E0978B868B118E128E138ECE
:100E2000148EA4E7B2E08BE015968C931597169676
:100E30008C931697E9EBF0E0E4911796EC931797F3
:100E4000E5EAF0E0E4911896EC93189740E85EE349
:100E500060E070E01D964D935D936D937C93509789
:100E6000ECE5F2E01382128286E191E091838083C7
:100E700082E084838FEF858383E0868384E08783A9
:100E800085E0808786E0818787E0828713861486E5
:100E900015861686178681E00C94AF04789484B585
:100EA000826084BD84B5816084BD85B5826085BD66
:100EB00085B5816085BD80916E00816080936E00F4
:100EC00010928100809181008260809381008091E6
:100ED0008100816080938100809180008160809397
:100EE00080008091B10084608093B1008091B00057
:100EF00081608093B00080917A00846080937A0052
:100F000080917A00826080937A0080917A0081607B
:100F100080937A0080917A00806880937A001092A2
:100F2000C100E091CF01F091D00182E08083E09197
:100F3000CB01F091CC011082E091CD01F091CE0176
:100F40008FEC80831092D701E091D301F091D4010E
:100F500086E08083E091D101F091D20180818061AF
:100F60008083E091D101F091D201808188608083FB
:100F7000E091D101F091D201808180688083E0917D
:100F8000D101F091D20180818F7D808362E08091D8
:100F900079020E941D022FB7F8948091BB019091B5
:100FA000BC01A091BD01B091BE012FBF805D9740F3
:100FB000A109B10980937D0290937E02A0937F02E4
:100FC000B093800287E38093860282E00E94AF04A0
:100FD00060E081E00E9450058AE291E00E940904ED
:100FE0006CED75E080E090E00E9473020E94A7041F
:100FF00060E080E00E94500585E391E00E940904D2
:1010000061E080E00E94500582E491E00E940904C2
:101010006CED75E080E090E00E9473020E94A704EE
:1010200060E080E00E9450058FE491E00E94090496
:1010300061E080E00E9450058CE591E00E94090487
:101040006CED75E080E090E00E9473020E94A704BE
:1010500060E081E00E94500588E691E00E9409046A
:1010600061E080E00E94500583E791E00E9409045E
:101070006CED75E080E090E00E9473020E94A7048E
:10108000C0E0D0E00E94A502882341F080917A025E
:101090008C3009F491C048F48B3001F1C12CD12C73
:1010A00080ECE82E8FE7F82E43C085518230B0F7F0
:1010B00010917602612F70E0762F662766277F7782
:1010C00080917702682B90E080E00E942B0A2DEC43
:1010D0003CEC4CEC5DE30E94E20A8AC0609176022F
:1010E00070E090E080E00E942B0A6B017C0110917F
:1010F000770217FF0AC0AC019B0160E070E080E856
:101100009FEB0E9418096B017C011F70612F70E03A
:1011100090E080E00E942D0A2DEC3CEC4CEC5DE36D
:101120000E94E20AA70196010E9419096B017C0145
:10113000C092B701D092B801E092B901F092BA0121
:1011400020E030E040E152E4C701B6010E94850989
:1011500087FF57C061E080E00E94500582E891E07F
:101160000E94090460E080E00E9450058EE891E052
:101170000E9409046091B7017091B8018091B90192
:101180009091BA0142E00E94650585E991E00E94D4
:1011900009046CE271E080E090E00E9473020E941A
:1011A000A704209709F46ECF0E942E01882309F42A
:1011B00069CF0E94000066CF10917602612F70E027
:1011C00090E080E00E942B0A6B017C016091770225
:1011D0006F7070E090E080E00E942D0A2DEC3CECF6
:1011E0004CEC5DE30E94E20AA70196010E941909F6
:1011F0006B017C0117FF9CCFF7FAF094F7F8F0949D
:1012000097CF20E030E044E152E4C701B6010E94EC
:10121000DD0A61E087FD06C080E00E94500588E994
:1012200091E09ECF80E00E94500584EA91E098CF43
:101230005058BB27AA270E9430090C94A30A0E9489
:10124000950A38F00E949C0A20F039F49F3F19F467
:1012500026F40C94920A0EF4E095E7FB0C948C0AA9
:10126000E92F0E94B40A58F3BA176207730784077C
:10127000950720F079F4A6F50C94D60A0EF4E095C3
:101280000B2EBA2FA02D0B01B90190010C01CA0140
:10129000A0011124FF27591B99F0593F50F4503EEB
:1012A00068F11A16F040A22F232F342F4427585FDD
:1012B000F3CF469537952795A795F0405395C9F7F5
:1012C0007EF41F16BA0B620B730B840BBAF09150AD
:1012D000A1F0FF0FBB1F661F771F881FC2F70EC04C
:1012E000BA0F621F731F841F48F48795779567951F
:1012F000B795F7959E3F08F0B0CF9395880F08F00B
:101300009927EE0F9795879508950E94680A08F42B
:1013100081E008950E949E090C94A30A0E949C0AF1
:1013200058F00E94950A40F029F45F3F29F00C9490
:101330008C0A51110C94D70A0C94920A0E94B40A98
:1013400068F39923B1F3552391F3951B550BBB27F4
:10135000AA2762177307840738F09F5F5F4F220F39
:10136000331F441FAA1FA9F335D00E2E3AF0E0E830
:1013700032D091505040E695001CCAF72BD0FE2F7A
:1013800029D0660F771F881FBB1F2617370748070E
:10139000AB07B0E809F0BB0B802DBF01FF279358C6
:1013A0005F4F3AF09E3F510578F00C948C0A0C94F4
:1013B000D70A5F3FE4F3983ED4F386957795679517
:1013C000B795F7959F5FC9F7880F911D96958795FB
:1013D00097F90895E1E0660F771F881FBB1F62171A
:1013E00073078407BA0720F0621B730B840BBA0BD8
:1013F000EE1F88F7E09508950E94BC0A88F09F5779
:1014000098F0B92F9927B751B0F0E1F0660F771F28
:10141000881F991F1AF0BA95C9F714C0B13091F01E
:101420000E94D60AB1E008950C94D60A672F782F4F
:101430008827B85F39F0B93FCCF3869577956795E3
:10144000B395D9F73EF490958095709561957F4F4F
:101450008F4F9F4F0895E89409C097FB3EF49095F5
:101460008095709561957F4F8F4F9F4F9923A9F07D
:10147000F92F96E9BB279395F6958795779567950C
:10148000B795F111F8CFFAF4BB0F11F460FF1BC050
:101490006F5F7F4F8F4F9F4F16C0882311F096E9E3
:1014A00011C0772321F09EE8872F762F05C0662391
:1014B00071F096E8862F70E060E02AF09A95660F4A
:1014C000771F881FDAF7880F9695879597F9089503
:1014D000990F0008550FAA0BE0E8FEEF1616170645
:1014E000E807F907C0F012161306E407F50798F0AD
:1014F000621B730B840B950B39F40A2661F0232BC6
:10150000242B252B21F408950A2609F4A140A69541
:101510008FEF811D811D089597F99F6780E870E026
:1015200060E008959FEF80EC089500240A94161659
:10153000170618060906089500240A9412161306C1
:10154000140605060895092E0394000C11F488234F
:1015500052F0BB0F40F4BF2B11F460FF04C06F5F6B
:101560007F4F8F4F9F4F089557FD9058440F551F41
:1015700059F05F3F71F04795880F97FB991F61F015
:101580009F3F79F087950895121613061406551F8C
:10159000F2CF4695F1DF08C0161617061806991FF8
:1015A000F1CF86957105610508940895E894BB27ED
:1015B00066277727CB0197F908950E94680A08F4F7
:1015C0008FEF08950E94F50A0C94A30A0E94950AD1
:1015D00038F00E949C0A20F0952311F00C948C0A9C
:1015E0000C94920A11240C94D70A0E94B40A70F346
:1015F000959FC1F3950F50E0551F629FF001729FB8
:10160000BB27F00DB11D639FAA27F00DB11DAA1FC6
:10161000649F6627B00DA11D661F829F2227B00D13
:10162000A11D621F739FB00DA11D621F839FA00D9E
:10163000611D221F749F3327A00D611D231F849FEE
:10164000600D211D822F762F6A2F11249F57504045
:101650009AF0F1F088234AF0EE0FFF1FBB1F661FC0
:10166000771F881F91505040A9F79E3F510580F089
:101670000C948C0A0C94D70A5F3FE4F3983ED4F3A1
:10168000869577956795B795F795E7959F5FC1F72D
:10169000FE2B880F911D9695879597F908950E94C6
:1016A000680A880B990B0895A1E21A2EAA1BBB1B8E
:1016B000FD010DC0AA1FBB1FEE1FFF1FA217B3071E
:1016C000E407F50720F0A21BB30BE40BF50B661F34
:1016D000771F881F991F1A9469F7609570958095F8
:1016E00090959B01AC01BD01CF010895EE0FFF1F46
:0C16F0000590F491E02D0994F894FFCFD0
:1016FC00000000006401C400F100B10122010001EE
:10170C001401000000005F05C400B503B4036E6152
:10171C006E00696E66006F766600544543204D4F2F
:10172C0054554C2000202050524F594543544F20C3
:10173C0020002020554E49444144203420200042B2
:10174C005249414E20535449464620004348494D86
:10175C0020504543482020002020474153504152FF
:10176C002020002020504F4F5420424153544F20F2
:10177C00200054656D702E2042616A612000546512
:10178C006D703A2000432E0054656D702E20416C14
:10179C007461200054656D702E204E6F726D616CFB
:0217AC0020001B
:107E0000112484B714BE81FFF0D085E080938100F7
:107E100082E08093C00088E18093C10086E0809377
:107E2000C20080E18093C4008EE0C9D0259A86E02C
:107E300020E33CEF91E0309385002093840096BBD3
:107E4000B09BFECF1D9AA8958150A9F7CC24DD24C4
:107E500088248394B5E0AB2EA1E19A2EF3E0BF2EE7
:107E6000A2D0813461F49FD0082FAFD0023811F036
:107E7000013811F484E001C083E08DD089C08234E0
:107E800011F484E103C0853419F485E0A6D080C0E4
:107E9000853579F488D0E82EFF2485D0082F10E0AE
:107EA000102F00270E291F29000F111F8ED06801E7
:107EB0006FC0863521F484E090D080E0DECF843638
:107EC00009F040C070D06FD0082F6DD080E0C81688
:107ED00080E7D80618F4F601B7BEE895C0E0D1E017
:107EE00062D089930C17E1F7F0E0CF16F0E7DF06D8
:107EF00018F0F601B7BEE89568D007B600FCFDCFD4
:107F0000A601A0E0B1E02C9130E011968C91119780
:107F100090E0982F8827822B932B1296FA010C0160
:107F200087BEE89511244E5F5F4FF1E0A038BF0790
:107F300051F7F601A7BEE89507B600FCFDCF97BE46
:107F4000E89526C08437B1F42ED02DD0F82E2BD052
:107F50003CD0F601EF2C8F010F5F1F4F84911BD097
:107F6000EA94F801C1F70894C11CD11CFA94CF0C13
:107F7000D11C0EC0853739F428D08EE10CD085E9AC
:107F80000AD08FE07ACF813511F488E018D01DD067
:107F900080E101D065CF982F8091C00085FFFCCF94
:107FA0009093C60008958091C00087FFFCCF809118
:107FB000C00084FD01C0A8958091C6000895E0E648
:107FC000F0E098E1908380830895EDDF803219F02E
:107FD00088E0F5DFFFCF84E1DECF1F93182FE3DFCA
:107FE0001150E9F7F2DF1F91089580E0E8DFEE27F6
:047FF000FF270994CA
:027FFE00040479
:0400000300007E007B
:00000001FF
